:100000000C945F000C9487000C9487000C9487007C
:100010000C9487000C9487000C9487000C94320495
:100020000C9487000C9487000C9487000C94870034
:100030000C9487000C9487000C9487000C94870024
:100040000C94E8030C9487000C94DA040C94B40428
:100050000C9487000C9487000C9487000C94870004
:100060000C9487000C948700000000080002010037
:100070000003040700000000000000000200000070
:1000800000250028002B0000000000240027002A83
:100090000004040404040404040202020202020331
:1000A000030303030301020408102040800102043B
:1000B000081020010204081020000C052308112458
:1000C0001FBECFEFD8E0DEBFCDBF23E0AEE1B2E090
:1000D00001C01D92A83BB207E1F712E0A0E0B1E039
:1000E000E0E8F5E102C005900D92AE31B107D9F715
:1000F00010E0CEE5D0E004C02197FE010E94B308D5
:10010000CD35D107C9F70E9416060C94B30A0C949A
:10011000000090E0FC01EB55FF4F24918F569F4F5C
:10012000FC018491882399F090E0880F991FFC01CD
:10013000E957FF4FA591B491FC01E358FF4F85911A
:1001400094918FB7F894EC91E22BEC938FBF0895C4
:10015000CF92DF92EF92FF921F93CF93DF936B01C9
:100160007C0180910001883051F08F3FE9F0DF91F0
:10017000CF911F91FF90EF90DF90CF900895ECE723
:10018000F0E0C491C7FDF3CF88E00E948900CC2342
:1001900009F477C0C23009F09BC08091B100887F1C
:1001A00084608093B10071C088E080930001ECE727
:1001B000F0E0C491CF3FD9F2C13019F148F0C2301C
:1001C00009F43DC0C7FDD3CF88E00E948900E2CF8B
:1001D00014BC15BC84B5826084BD85B5816085BDC5
:1001E000E9E9F0E0E491F0E0EE0FFF1FE358FF4F84
:1001F00085919491EDEAF0E0E491E0932C02C0E067
:10020000C3CF10928000109281008091810088609D
:100210008093810080918100816080938100E9E971
:10022000F0E0E491F0E0EE0FFF1FE358FF4F8591FF
:100230009491EDEAF0E0E491E0932B02A5CF1092C7
:10024000B0001092B1008091B00082608093B00045
:100250008091B10081608093B100E9E9F0E0E49120
:10026000F0E0EE0FFF1FE358FF4F859194919093BC
:100270002A0280932902EDEAF0E0E491E09328025B
:1002800083CF85B5887F836085BDDBE910E0A0E47E
:10029000B6E0A70196010E94400828EE33E040E056
:1002A00050E00E949108C130F1F0C23081F1C111DB
:1002B0005ECFD7BD2093350230933602409337028C
:1002C0005093380280916E00826080936E004FCF11
:1002D000C13031F480918100887F816080938100FA
:1002E000DFE017E2D4CF8D2F912F90938900809378
:1002F00088002093310230933202409333025093AE
:10030000340280916F00826080936F0030CFD09371
:10031000B30020932D0230932E0240932F0250936E
:1003200030028091700082608093700020CF90E056
:10033000FC01E859FF4F2491FC01EB55FF4F34912C
:10034000FC01EF56FF4FE491EE23C9F0222339F070
:10035000233001F1A8F4213019F1223029F1F0E025
:10036000EE0FFF1FE358FF4FA591B4918FB7F8949C
:10037000EC91611126C030953E233C938FBF0895C8
:100380002730A9F02830C9F0243049F78091800047
:100390008F7D03C0809180008F7780938000DFCFB6
:1003A00084B58F7784BDDBCF84B58F7DFBCF809103
:1003B000B0008F778093B000D2CF8091B0008F7D56
:1003C000F9CF3E2BDACF3FB7F89480912402909179
:1003D0002502A0912602B091270226B5A89B05C050
:1003E0002F3F19F00196A11DB11D3FBFBA2FA92FB4
:1003F000982F8827BC01CD01620F711D811D911DB1
:1004000042E0660F771F881F991F4A95D1F708951C
:100410008F929F92AF92BF92CF92DF92EF92FF9214
:100420004B015C010E94E3016B017C010E94E3012E
:100430006C197D098E099F09683E734081059105FD
:10044000A8F321E0821A9108A108B10888EEC80E2D
:1004500083E0D81EE11CF11C81149104A104B104B5
:1004600029F7FF90EF90DF90CF90BF90AF909F90D3
:100470008F900895AF92BF92CF92DF92EF92FF924A
:100480000F931F93CF93DF936C017B018B01040FBC
:10049000151FEB015E01AE18BF08C017D10759F058
:1004A0006991D601ED91FC910190F081E02DC6019A
:1004B0000995892B79F7C501DF91CF911F910F9194
:1004C000FF90EF90DF90CF90BF90AF900895FC0128
:1004D000538D448D252F30E0842F90E0821B930BA9
:1004E000541710F0CF96089501970895FC01918D4F
:1004F000828D981761F0A28DAE0FBF2FB11D5D9652
:100500008C91928D9F5F9F73928F90E008958FEFF3
:100510009FEF0895FC01918D828D981731F0828DA7
:10052000E80FF11D858D90E008958FEF9FEF0895FE
:10053000FC01918D228D892F90E0805C9F4F821B62
:1005400091098F739927089589E392E00E94980298
:1005500021E0892B09F420E0822F089580E090E0CB
:10056000892B29F00E94A40281110C9400000895A7
:10057000FC01A48DA80FB92FB11DA35ABF4F2C9118
:10058000848D90E001968F739927848FA689B7890F
:100590002C93A089B1898C91837080648C93938D06
:1005A000848D981306C00288F389E02D80818F7DA9
:1005B00080830895EF92FF920F931F93CF93DF9361
:1005C000EC0181E0888F9B8D8C8D98131AC0E8898F
:1005D000F989808185FF15C09FB7F894EE89FF895E
:1005E0006083E889F98980818370806480839FBFFC
:1005F00081E090E0DF91CF911F910F91FF90EF90FC
:100600000895F62E0B8D10E00F5F1F4F0F7311270B
:10061000E02E8C8D8E110CC00FB607FCFACFE88946
:10062000F989808185FFF5CFCE010E94B802F1CF14
:10063000EB8DEC0FFD2FF11DE35AFF4FF0829FB7BA
:10064000F8940B8FEA89FB8980818062CFCFCF93AA
:10065000DF93EC01888D8823B9F0AA89BB89E889EA
:10066000F9898C9185FD03C0808186FD0DC00FB690
:1006700007FCF7CF8C9185FFF2CF808185FFEDCF0E
:10068000CE010E94B802E9CFDF91CF910895FC011D
:1006900001900020E9F73197AF01481B590BBC01CD
:1006A00089E392E00C943A02CF93DF930E944703D0
:1006B000EC0189E191E00E9447038C0F9D1FDF91BF
:1006C000CF910895FC0180819181009711F00C94E5
:1006D000550908950F931F93CF93DF93EC01888101
:1006E0009981009759F02A813B812617370730F00E
:1006F00081E0DF91CF911F910F9108958B016F5F82
:100700007F4F0E94DE09009759F0998388831B83ED
:100710000A832C813D81232B59F7FC011082E8CFFD
:1007200080E0E7CFEF92FF920F931F93CF93DF9379
:10073000EC017B018A01BA010E946A032881398198
:10074000811114C02115310519F0C9010E94550904
:10075000198218821D821C821B821A82CE01DF91AF
:10076000CF911F910F91FF90EF9008951D830C83FF
:10077000B701C9010E94AC0AF1CFFB01DC0111965F
:100780001C921E9213961C921E92129715961C9202
:100790001E9214978617970749F060817181611541
:1007A000710521F0448155810C9492030895FC0158
:1007B000118210821382128215821482FB01019031
:1007C0000020E9F73197AF01461B570B0C949203B9
:1007D0001F920F920FB60F9211242F933F938F9376
:1007E0009F93AF93BF938091200290912102A0919B
:1007F0002202B091230230911F0223E0230F2D37F4
:1008000058F50196A11DB11D20931F02809320026F
:1008100090932102A0932202B0932302809124029C
:1008200090912502A0912602B09127020196A11D68
:10083000B11D8093240290932502A0932602B093C9
:100840002702BF91AF919F918F913F912F910F9070
:100850000FBE0F901F90189526E8230F0296A11D3A
:10086000B11DD2CF1F920F920FB60F9211242F936A
:100870003F934F935F936F937F938F939F93AF9328
:10088000BF93EF93FF9380912D0290912E02A09140
:100890002F02B0913002892B8A2B8B2BD1F19091B2
:1008A0002802E0912902F0912A0280818927808321
:1008B00080912D0290912E02A0912F02B0913002D2
:1008C000181619061A061B069CF480912D029091A9
:1008D0002E02A0912F02B09130020197A109B10917
:1008E00080932D0290932E02A0932F02B09330029A
:1008F000FF91EF91BF91AF919F918F917F916F91F8
:100900005F914F913F912F910F900FBE0F901F90CD
:10091000189580910001ECE7F0E0E4919FEF90934F
:100920000001E13051F030F0E23069F060E00E9407
:100930009701DECF10926E00F9CF90916F009D7FEE
:1009400090936F00F3CF909170009D7F9093700013
:1009500091E09093B0009091B100987F9460909353
:10096000B1001092B300E2CF1F920F920FB60F9218
:1009700011242F933F934F935F936F937F938F93A4
:100980009F93AF93BF93EF93FF9389E392E00E940D
:10099000B802FF91EF91BF91AF919F918F917F919D
:1009A0006F915F914F913F912F910F900FBE0F90DC
:1009B0001F9018951F920F920FB60F9211242F932C
:1009C0008F939F93EF93FF93E0914902F0914A0236
:1009D0008081E0914F02F091500282FD1BC0908116
:1009E000809152028F5F8F7320915302821741F0E2
:1009F000E0915202F0E0E75CFD4F958F8093520248
:100A0000FF91EF919F918F912F910F900FBE0F90BB
:100A10001F9018958081F4CFE9E3F2E013821282EF
:100A200088EE93E0A0E0B0E084839583A683B7834B
:100A30008BE091E09183808385EC90E095878487BB
:100A400084EC90E09787868780EC90E0918B808B98
:100A500081EC90E0938B828B82EC90E0958B848B81
:100A600086EC90E0978B868B118E128E138E148EEF
:100A700068E271E088E193E00E94D70360E671E0EC
:100A80008EE193E00E94D70361E072E084E293E09C
:100A90000E94D70367E671E08AE293E00E94D703E1
:100AA0006FE671E080E393E00E94D7036AEF71E0A4
:100AB00086E393E00E94D7036DE671E08CE393E058
:100AC0000E94D7036AE571E082E493E00E94D703B5
:100AD00068E671E088E493E00E94D70362E471E085
:100AE0008EE493E00E94D70367E271E084E593E02F
:100AF0000E94D7036CE171E08AE593E00E94D7037E
:100B000068E371E080E693E00E94D7036EE671E04F
:100B100086E693E00E94D70367E371E08CE693E0FA
:100B20000E94D70361E271E082E793E00E94D7035D
:100B300066E271E088E793E00E94D70362E072E02A
:100B40008EE793E00E94D70361E671E084E893E0CA
:100B50000E94D70369E371E08AE893E00E94D7031B
:100B60006CE271E080E993E00E94D7036EE471E0EB
:100B700086E993E00E94D70361E371E08CE993E09A
:100B80000E94D7036BE271E082EA93E00E94D703F0
:100B900060E371E088EA93E00E94D70366E671E0C3
:100BA0008EEA93E00E94D70365E371E08CED92E05A
:100BB0000E94D7036BE371E082EE92E00E94D703BC
:100BC00061E471E088EE92E00E94D70367E471E08F
:100BD0008EEE92E00E94D7036DE471E084EF92E024
:100BE0000E94D70363E571E08AEF92E00E94D70389
:100BF00069E571E080E093E00E94D7036FE571E062
:100C000086E093E00E94D70365E671E08CE093E014
:100C10000E94D7036BE671E082E193E00E94D70364
:100C20006BE171E086ED92E00C94D703CF93DF93F4
:100C3000CDB7DEB72C970FB6F894DEBF0FBECDBF91
:100C4000789484B5826084BD84B5816084BD85B5A7
:100C5000826085BD85B5816085BD80916E008160B3
:100C600080936E0010928100809181008260809359
:100C7000810080918100816080938100809180005B
:100C80008160809380008091B10084608093B10086
:100C90008091B00081608093B00080917A00846080
:100CA00080937A0080917A00826080937A008091AC
:100CB0007A00816080937A0080917A0080688093C6
:100CC0007A001092C1008DE00E94890088E00E94A5
:100CD0008900E0914902F0914A0282E08083E0912C
:100CE0004502F09146021082E0914702F0914802DD
:100CF0008FEC808310925102E0914D02F0914E02F0
:100D000086E08083E0914B02F0914C02808180610B
:100D10008083E0914B02F0914C0280818860808357
:100D2000E0914B02F0914C02808180688083E091D9
:100D30004B02F0914C0280818F7D808381E791E0AE
:100D40000E94540380E991E00E94540386E0B82E8B
:100D500090E0E92E90E0F92EAA24A39489E392E092
:100D60000E94980218161906A4F589E392E00E94E1
:100D700076028A3029F18D3089F389831A820091B5
:100D8000DA021091DB020F5F1F4FB80186ED92E08F
:100D90000E946A03882311F32091D6023091D70272
:100DA0008091DA029091DB02BE016F5F7F4F820F6C
:100DB000931F0E94AC0A1093DB020093DA02CECF9D
:100DC0008091DA029091DB02892B41F2A0921E02FF
:100DD000C5CF80911E02882309F429C18FEA91E0D2
:100DE0000E9447034091DA025091DB026091D602E3
:100DF0007091D70289E392E00E943A0289E191E082
:100E00000E94470382EC91E00E94540318861F82DF
:100E10001A8619861C861B866091D6027091D702AD
:100E20006115710541F04091DA025091DB02CE016B
:100E300007960E9492030F8118850115110501F58F
:100E4000D12CC12C8B859C85C816D90608F0DDC035
:100E50008F819885009711F18C0D9D1DFC011081EB
:100E60001032E9F468E775E080E090E00E94080243
:100E700080EE91E00E944703FFEFCF1ADF0AE2CF36
:100E8000F80181918F018823D9F2082E000C990B6B
:100E90000E949B0AF80131978083F2CF10E08FEB1C
:100EA000810F8A3108F067C0812F012E000C990B49
:100EB00081549109B89EB001B99E700D1124685EED
:100EC0007C4FCE0101960E94BD038D819E81892BAE
:100ED00009F496C0E981FA818081882309F490C0E1
:100EE000612F89E392E00E94DA028FEB91E00E9489
:100EF00047034D815E8169817A8189E392E00E9496
:100F00003A0282EE91E00E94470310E000E08D81FA
:100F10009E810817190708F06DC089819A81009792
:100F2000D9F0800F911FFC0180818E3209F051C0F1
:100F300061E08DE00E94970168EC70E080E090E055
:100F40000E94A80068EC70E080E090E00E94080237
:100F500060E08DE00E9497018D819E8101970817C6
:100F6000190730F468EC70E080E090E00E9408021D
:100F70000F5F1F4FCCCF80ED810F8A3068F4812F37
:100F8000012E000C990BC097B89EB001B99E700D50
:100F9000112464527D4F95CF69EF71E01F32A1F0AB
:100FA0005CF46BEE71E01C3279F064EE71E01E329D
:100FB00059F06BE171E008C062EF71E01F3321F07E
:100FC0006FEF71E01034A9F7CE0101960E94D703AC
:100FD0007CCF8D3209F661E08DE00E94970168E5D3
:100FE00072E080E090E00E94A80068E572E080E096
:100FF00090E0ACCF68E572E080E090E00E940802EB
:10100000CE0101960E94620337CFCE0107960E945F
:10101000620350E040E06BE171E086ED92E00E94F7
:10102000920310921E0286E092E00E945403E114A3
:10103000F10409F493CE0E94A402882309F48ECE11
:101040000E9400008BCECF93DF9386ED92E00E944A
:101050006203C8E1D3E02697CE010E94620382E0DA
:10106000CC3DD807C1F7C4EBD3E02697CE010E9450
:10107000620383E0C831D807C1F7DF91CF910895AB
:101080000E948208A59F900DB49F900DA49F800D93
:10109000911D112408952F923F924F925F926F926B
:1010A0007F928F929F92AF92BF92CF92DF92EF92F8
:1010B000FF920F931F93CF93DF93CDB7DEB7CA1B79
:1010C000DB0B0FB6F894DEBF0FBECDBF09942A88A4
:1010D000398848885F846E847D848C849B84AA844C
:1010E000B984C884DF80EE80FD800C811B81AA81D9
:1010F000B981CE0FD11D0FB6F894DEBF0FBECDBFA4
:10110000ED010895A29FB001B39FC001A39F700D90
:10111000811D1124911DB29F700D811D1124911DFF
:101120000895A1E21A2EAA1BBB1BFD010DC0AA1F28
:10113000BB1FEE1FFF1FA217B307E407F50720F040
:10114000A21BB30BE40BF50B661F771F881F991FBB
:101150001A9469F760957095809590959B01AC0104
:10116000BD01CF010895EE0FFF1F0590F491E02D12
:1011700009940F931F93CF93DF938230910510F45E
:1011800082E090E0E091B603F091B70330E020E018
:10119000B0E0A0E0309799F42115310509F44AC078
:1011A000281B390B24303105D8F58A819B816115C4
:1011B000710589F1FB0193838283FE0111C0408197
:1011C00051810281138148175907E0F048175907E8
:1011D00099F4109761F012960C93129713961C9342
:1011E0003296CF01DF91CF911F910F910895009317
:1011F000B6031093B703F4CF2115310551F0421710
:10120000530738F0A901DB019A01BD01DF01F801A4
:10121000C1CFEF01F9CF9093B7038093B603CDCF41
:10122000FE01E20FF31F819391932250310939831C
:101230002883D7CF2091B4033091B503232B41F4F9
:1012400020910301309104013093B5032093B4033E
:1012500020910101309102012115310541F42DB792
:101260003EB74091050150910601241B350BE091DA
:10127000B403F091B503E217F307A0F42E1B3F0B64
:101280002817390778F0AC014E5F5F4F24173507F8
:1012900048F04E0F5F1F5093B5034093B403819302
:1012A00091939FCFF0E0E0E09CCFCF93DF93009746
:1012B000E9F0FC01329713821282A091B603B0913B
:1012C000B703ED0130E020E01097A1F420813181D7
:1012D000820F931F2091B4033091B503281739076B
:1012E00009F061C0F093B503E093B403DF91CF91AF
:1012F0000895EA01CE17DF07E8F54A815B819E0178
:1013000041155105B1F7E901FB83EA8349915991F0
:10131000C40FD51FEC17FD0761F4808191810296FF
:10132000840F951FE90199838883828193819B8330
:101330008A83F0E0E0E012968D919C9113970097DC
:10134000B9F52D913C911197CD010296820F931F13
:101350002091B4033091B5032817390739F6309737
:1013600051F51092B7031092B603B093B503A09352
:10137000B403BCCFD383C28340815181840F951FB6
:10138000C817D90761F44E5F5F4F88819981480F74
:10139000591F518340838A819B81938382832115C6
:1013A000310509F0B0CFF093B703E093B6039ECFB9
:1013B000FD01DC01C0CF13821282D7CFB0E0A0E0E4
:1013C000E4EEF9E00C944D088C01009751F4CB0148
:1013D0000E94B9088C01C801CDB7DEB7E0E10C94DA
:1013E0006908FC01E60FF71F9C0122503109E21742
:1013F000F30708F49DC0D901CD91DC911197C61770
:10140000D70798F0C530D10530F3CE010497861781
:10141000970708F3C61BD70B2297C193D1936D93FF
:101420007C93CF010E945509D6CF5B01AC1ABD0A4F
:101430004C018C0E9D1EA091B603B091B703512CA8
:10144000412CF12CE12C109731F58091B40390914F
:10145000B5038815990509F05CC04616570608F0D3
:1014600058C08091010190910201009741F48DB71D
:101470009EB74091050150910601841B950BE8171A
:10148000F90708F055C0F093B503E093B403F901F0
:1014900071836083A0CF8D919C91119712966C906F
:1014A000129713967C901397A815B90559F56C01FE
:1014B00042E0C40ED11CCA14DB0420F1AC014A196D
:1014C0005B09DA011296159780F06282738251836C
:1014D0004083D9016D937C93E114F10471F0D7013D
:1014E0001396FC93EE93129776CF22968C0F9D1F46
:1014F000F90191838083F301EFCFF093B703E09379
:10150000B60369CF4816590608F42C017D01D301B2
:101510009ACFCB010E94B9087C01009749F0AE0137
:10152000B8010E94A30AC8010E945509870153CF40
:1015300010E000E050CF9111089581568A5108F4CF
:10154000805285580895FB01DC0102C001900D9284
:1015500041505040D8F70895FB01DC0101900D92F5
:101560000020E1F7089510E0CEE5D0E004C0FE01D0
:101570000E94B3082196CF35D107C9F7F894FFCF61
:10158000FF0000B803800000000000DA023A0267A2
:10159000022703980276028A020D0A002E2D2E2EB3
:1015A000002E2D2D2E002D2D2E2D002D2E2E2D001A
:1015B0002D2E2D2D002D2D2D2D2D002E2D2D2D2DB3
:1015C000002E2E2D2D2D002E2E2E2D2D002E2E2ECA
:1015D0002E2D002E2E2E2E2E002D2E2E2E2E002DB8
:1015E0002D2E2E2E002D2D2D2E2E002D2D2D2D2E7F
:1015F0000041726475696E6F204D6F727365204390
:101600006F6465205472616E736D697474657200E5
:10161000456E7465722061206D6573736167652026
:10162000616E642070726573732053656E64004D43
:101630006573736167652072656365697665643A91
:1016400020005472616E736D697474696E672069ED
:101650006E204D6F72736520636F64652E2E2E00B1
:10166000202020002E2D2E2D2E2D002D2D2E2E2D26
:101670002D002E2E2D2D2E2E002D2E2E2D2E002E19
:101680002D2D2E2D2E000A526561647920666F7211
:0E169000206E657874206D6573736167650068
:00000001FF
